:100000000C945C000C9479000C9479000C947900A9
:100010000C9479000C9479000C9479000C9479007C
:100020000C9479000C9479000C9479000C9479006C
:100030000C9479000C9479000C9479000C9479005C
:100040000C9419010C9479000C9479000C947900AB
:100050000C9479000C9479000C9479000C9479003C
:100060000C9479000C947900000000002400270013
:100070002A0000000000250028002B0004040404CE
:100080000404040402020202020203030303030342
:10009000010204081020408001020408102001021F
:1000A00004081020000000080002010000030407FB
:1000B000000000000000000011241FBECFEFD8E0B8
:1000C000DEBFCDBF11E0A0E0B1E0E6EEF3E002C09C
:1000D00005900D92A031B107D9F721E0A0E1B1E080
:1000E00001C01D92A931B207E1F70E9463010C948F
:1000F000F1010C94000090E0FC01EC55FF4F2491BD
:10010000FC01E057FF4F3491FC01E458FF4FE491AC
:10011000EE23B1F0222339F02330E9F090F42130BE
:1001200001F1223011F1F0E0EE0FFF1FEE58FF4F0A
:10013000A591B4918FB7F894EC913E2B3C938FBF6F
:1001400008952730A9F02830C9F0243061F7809154
:1001500080008F7D03C0809180008F778093800026
:10016000E2CF84B58F7784BDDECF84B58F7DFBCFA2
:100170008091B0008F778093B000D5CF8091B00090
:100180008F7DF9CF3FB7F8948091150190911601BA
:10019000A0911701B091180126B5A89B05C02F3F6B
:1001A00019F00196A11DB11D3FBFBA2FA92F982F9D
:1001B0008827BC01CD01620F711D811D911D42E098
:1001C000660F771F881F991F4A95D1F708958F9260
:1001D0009F92AF92BF92CF92DF92EF92FF924B012C
:1001E0005C010E94C2006B017C010E94C2006C197C
:1001F0007D098E099F09683E734081059105A8F32A
:1002000021E0821A9108A108B10888EEC80E83E0A7
:10021000D81EE11CF11C81149104A104B10429F73A
:10022000FF90EF90DF90CF90BF90AF909F908F9016
:1002300008951F920F920FB60F9211242F933F93A0
:100240008F939F93AF93BF9380911101909112016F
:10025000A0911301B09114013091100123E0230FFC
:100260002D3758F50196A11DB11D209310018093E3
:10027000110190931201A0931301B0931401809186
:10028000150190911601A0911701B09118010196E6
:10029000A11DB11D8093150190931601A093170124
:1002A000B0931801BF91AF919F918F913F912F9182
:1002B0000F900FBE0F901F90189526E8230F0296FF
:1002C000A11DB11DD2CF789484B5826084BD84B560
:1002D000816084BD85B5826085BD85B5816085BD41
:1002E00080916E00816080936E00109281008091F9
:1002F0008100826080938100809181008160809381
:100300008100809180008160809380008091B100A5
:1003100084608093B1008091B00081608093B000D0
:1003200080917A00846080937A0080917A00826064
:1003300080937A0080917A00816080937A00809126
:100340007A00806880937A001092C100C0E0D1E00A
:1003500020E131E0899199919927FC01E057FF4F05
:10036000449184589F4FFC018491882399F090E038
:10037000880F991FFC01E859FF4FA591B491FC012A
:10038000EE58FF4F859194918FB7F894EC91E42B40
:10039000EC938FBF2C173D07E9F680E0E82E80E054
:1003A000F82E68E57BE180E090E00E94E70082E0C3
:1003B0000E947B0002E011E068EE73E080E090E0D4
:1003C0000E94E700F80180810E5F1F4F0E947B00B2
:1003D000C017D10789F7E114F10419F30E94000056
:0603E000E0CFF894FFCF0E
:1003E60002000300040005000600070008000900DB
:00000001FF
